:100000000C945C000C946E000C946E000C946E00CA
:100010000C946E000C946E000C946E000C946E00A8
:100020000C946E000C946E000C946E000C946E0098
:100030000C946E000C946E000C946E000C946E0088
:100040000C940E020C946E000C946E000C946E00D6
:100050000C946E000C946E000C946E000C946E0068
:100060000C946E000C946E00000000080002010069
:100070000003040700000000000000000000000072
:10008000250028002B0000000000240027002A0083
:10009000040404040404040402020202020203032E
:1000A0000303030301020408102040800102040836
:1000B000102001020408102011241FBECFEFD8E049
:1000C000DEBFCDBF21E0A0E0B1E001C01D92A531AF
:1000D000B207E1F70E9458020C9430030C94000020
:1000E00090E0FC01EC55FF4F249180579F4FFC019D
:1000F0008491882399F090E0880F991FFC01EA57BA
:10010000FF4FA591B491FC01E458FF4F8591949164
:100110008FB7F894EC91E22BEC938FBF089590E0A9
:10012000FC01E859FF4F2491FC01EC55FF4F34913D
:10013000FC01E057FF4FE491EE23C9F0222339F090
:10014000233001F1A8F4213019F1223029F1F0E037
:10015000EE0FFF1FE458FF4FA591B4918FB7F894AD
:10016000EC91611126C030953E233C938FBF0895DA
:100170002730A9F02830C9F0243049F78091800059
:100180008F7D03C0809180008F7780938000DFCFC8
:1001900084B58F7784BDDBCF84B58F7DFBCF809115
:1001A000B0008F778093B000D2CF8091B0008F7D68
:1001B000F9CF3E2BDACF3FB7F8948091110190919F
:1001C0001201A0911301B091140126B5A89B05C09E
:1001D0002F3F19F00196A11DB11D3FBFBA2FA92FC6
:1001E000982F8827BC01CD01620F711D811D911DC3
:1001F00042E0660F771F881F991F4A95D1F708952F
:100200008F929F92AF92BF92CF92DF92EF92FF9226
:100210000E94DB004B015C0188EEC82E83E0D82EE3
:10022000E12CF12C0E94DB00681979098A099B09ED
:10023000683E734081059105A8F321E0C21AD108F8
:10024000E108F10888EE880E83E0981EA11CB11C1D
:10025000C114D104E104F10429F7FF90EF90DF907D
:10026000CF90BF90AF909F908F900895EF92FF92A4
:100270000F931F93CF93DF93FC01892B51F46115EA
:100280007105C1F54115510521F481E021153105B4
:1002900009F480E0E12CAE2DB0E0B0930B01A09307
:1002A0000A01309799F56115710581F541155105E0
:1002B00069F18901A1E00A270170A02FB0E0B09395
:1002C0000901A0930801DF0191E0A927A623B72324
:1002D000AB2BF1F04115510539F4C1E02115310581
:1002E00009F14115510521F0C1E021153105D1F485
:1002F000C0E018C0C901A1E08A278170922F9170D7
:10030000E92E4115510539F2E82EC5CF00E0D5CFD1
:10031000309779F56115710521F7C22FC17041152C
:10032000510531F7AC2FB0E0B0930701A09306015F
:10033000309721F5D1E02115310541F461157105A2
:1003400001F1DA0191E0A927DA2FD170AD2FB0E0E9
:10035000B0930501A0930401309749F4611571052C
:1003600009F14115510519F02115310589F4F12CD8
:100370001FC06115710509F0BBCFCFCF61157105A5
:1003800029F44115510511F4D22FDFCFD0E0DECF93
:10039000FF24F3940DC0452B19F011E0232BB1F489
:1003A00010E014C02115310599F7A42FA170FA2E81
:1003B000AF2DB0E0B0930301A0930201EF2B81F7C2
:1003C000672B49F791E04927142F1170212F30E056
:1003D0003093010120930001682F82E00E948F007A
:1003E0006E2D83E00E948F00602F84E00E948F00BA
:1003F0006C2F85E00E948F006D2F86E00E948F0099
:100400006F2D87E00E948F00612F88E0DF91CF91F0
:100410001F910F91FF90EF900C948F001F920F92FD
:100420000FB60F9211242F933F938F939F93AF9307
:10043000BF9380910D0190910E01A0910F01B09199
:10044000100130910C0123E0230F2D3758F5019650
:10045000A11DB11D20930C0180930D0190930E01FD
:10046000A0930F01B093100180911101909112019E
:10047000A0911301B09114010196A11DB11D8093AB
:10048000110190931201A0931301B0931401BF9135
:10049000AF919F918F913F912F910F900FBE0F9031
:1004A0001F90189526E8230F0296A11DB11DD2CFEB
:1004B000789484B5826084BD84B5816084BD85B53F
:1004C000826085BD85B5816085BD80916E0081604B
:1004D00080936E00109281008091810082608093F1
:1004E00081008091810081608093810080918000F3
:1004F0008160809380008091B10084608093B1001E
:100500008091B00081608093B00080917A00846017
:1005100080937A0080917A00826080937A00809143
:100520007A00816080937A0080917A00806880935D
:100530007A001092C10082E00E94700083E00E9465
:10054000700084E00E94700085E00E94700086E0E8
:100550000E94700087E00E94700088E00E94700096
:10056000C0E0D0E030E020E050E040E070E060E04B
:1005700090E080E00E9436010E94000121E030E01E
:1005800050E040E070E060E090E080E00E943601E2
:100590000E94000130E020E041E050E070E060E0C7
:1005A00090E080E00E9436010E94000121E030E0EE
:1005B00041E050E070E060E090E080E00E943601B1
:1005C0000E94000130E020E050E040E061E070E097
:1005D00090E080E00E9436010E94000121E030E0BE
:1005E00050E040E061E070E090E080E00E94360181
:1005F0000E94000130E020E041E050E061E070E066
:1006000090E080E00E9436010E94000121E030E08D
:1006100041E050E061E070E090E080E00E9436014F
:100620000E94000130E020E050E040E070E060E037
:1006300081E090E00E9436010E94000121E030E05C
:1006400050E040E070E060E081E090E00E94360120
:100650000E940001209709F485CF0E94000082CFFC
:04066000F894FFCF3C
:00000001FF
