:100000000C9434000C9446000C9446000C9446006A
:100010000C9446000C9446000C9446000C94460048
:100020000C9446000C9446000C9446000C94460038
:100030000C9446000C9446000C9446000C94460028
:100040000C9446000C9446000C9446000C94460018
:100050000C9446000C9446000C9446000C94460008
:100060000C9446000C94460011241FBECFEFD8E03C
:10007000DEBFCDBF21E0A0E0B1E001C01D92A03104
:10008000B207E1F70E9448000C9437010C9400007D
:100090008CE38AB980E284B980EC8BB983E085B9BE
:1000A00040E221E030E075C06115710509F4C3C07C
:1000B00030930D0120930C01809102019091030176
:1000C000892B09F4CFC030930F0120930E0181E0FA
:1000D0006091000170910101672B09F480E0682FA5
:1000E00070E08295880F807E70930901609308010B
:1000F0008BB95BB180910E0190910F018295929521
:10010000907F9827807F9827852B8BB95BB1809152
:100110000C0190910D01880F991F880F991F880F6E
:10012000991F852B8BB95BB180910A0190910B01CE
:10013000880F991F880F991F852B8BB989B186FB72
:10014000882780F9809306011092070189B1082E53
:10015000000C990B892F881F8827881F8093040122
:100160001092050183B18170809302011092030106
:1001700083B186958170809300011092010115B8BA
:100180005FEF89E698E1515080409040E1F700C070
:10019000000045B9809106019091070161E070E08F
:1001A000009711F060E070E070930B0160930A011A
:1001B0006091040170910501009709F475CF6115F4
:1001C0007105D9F4E0910001F0910101EF2BC1F527
:1001D00030930D0120930C01E0910201F091030195
:1001E000309709F130930F0120930E01892B09F408
:1001F0006ECF80E060E070E077CF10920D0110923A
:100200000C01E0910201F0910301309719F1109275
:100210000F0110920E01672B61F3EF2B51F380E277
:1002200061E070E061CF10920F0110920E01892BF6
:1002300009F44DCFF0CF10920D0110920C01CCCFEC
:1002400010920D0110920C01E0910201F091030156
:100250003097E9F230930F0120930E0180E060E0C7
:1002600070E042CF10920F0110920E0130CFF8943F
:02027000FFCFBE
:00000001FF
