:020000020000FC
:100000008CE38AB901E048E0342E302236943694ED
:10001000369444E0242E20222694269441E0142E87
:10002000102242E0042E0022069441E0742E732434
:10003000642E6224542E5124442E4024C42CC1200A
:10004000C720B52CB020A12CA020A620942C922053
:10005000852C8220212D20212221352D3321CB28D2
:10006000CC0CA928A828AA0CAA0C232B220F220FFB
:10007000220F2A292C292529022F0E944300220F12
:10008000220F2BB9C0CF2F9300E510E020E02A9576
:0E009000F1F71A95E1F70A95D1F72F9108952F
:00000001FF
