:100000000C9462000C948A000C948A000C948A0070
:100010000C948A000C948A000C948A000C948A0038
:100020000C948A000C948A000C948A000C948A0028
:100030000C948A000C948A000C948A000C948A0018
:100040000C94A1020C948A000C9411030C94EB0202
:100050000C948A000C948A000C948A000C948A00F8
:100060000C948A000C948A000000000024002700F1
:100070002A0000000000250028002B0000000000DE
:1000800023002600290004040404040404040202DA
:100090000202020203030303030301020408102007
:1000A0004080010204081020010204081020000012
:1000B0000008000201000003040700000000000027
:1000C0000000CE0411241FBECFEFD8E0DEBFCDBFAD
:1000D00011E0A0E0B1E0E6E0FAE002C005900D9288
:1000E000A631B107D9F721E0A6E1B1E001C01D9228
:1000F000AC3BB207E1F710E0C2E6D0E004C02197C4
:10010000FE010E94FB04C136D107C9F70E944303D8
:100110000C9401050C940000833081F028F48130A8
:1001200099F08230A9F008958730A9F08830C9F09D
:100130008430B1F4809180008F7D03C08091800075
:100140008F7780938000089584B58F7784BD08955C
:1001500084B58F7DFBCF8091B0008F778093B00006
:1001600008958091B0008F7DF9CFCF93DF93282F32
:1001700030E0F901E255FF4F8491F901E656FF4F57
:10018000D491F901EA57FF4FC491CC23A1F081111A
:100190000E948C00EC2FF0E0EE0FFF1FE458FF4FA1
:1001A000A591B491EC91ED2381E090E009F480E019
:1001B000DF91CF91089580E090E0FACF1F93CF9325
:1001C000DF93282F30E0F901E255FF4F8491F901C8
:1001D000E656FF4FD491F901EA57FF4FC491CC2363
:1001E000A9F0162F81110E948C00EC2FF0E0EE0F89
:1001F000FF1FEE58FF4FA591B4918FB7F894EC9183
:10020000111108C0D095DE23DC938FBFDF91CF9111
:100210001F910895DE2BF8CFCF93DF9390E0FC0180
:10022000E656FF4F24918A579F4FFC018491882303
:10023000D1F090E0880F991FFC01E859FF4FA5917C
:10024000B491FC01EE58FF4FC591D49161110EC0DD
:100250009FB7F8948C91E22FE0958E238C932881A0
:10026000E223E8839FBFDF91CF9108958FB7F89481
:10027000EC91E22BEC938FBFF6CF3FB7F8948091CF
:100280001B0190911C01A0911D01B0911E0126B58A
:10029000A89B05C02F3F19F00196A11DB11D3FBFBE
:1002A000BA2FA92F982F8827BC01CD01620F711D8D
:1002B000811D911D42E0660F771F881F991F4A9587
:1002C000D1F70895AF92BF92CF92DF92EF92FF9253
:1002D0000F931F93CF93DF936C017B018B01040F6E
:1002E000151FEB015E01AE18BF08C017D10759F00A
:1002F0006991D601ED91FC910190F081E02DC6014C
:100300000995892B79F7C501DF91CF911F910F9145
:10031000FF90EF90DF90CF90BF90AF900895FC01D9
:10032000538D448D252F30E0842F90E0821B930B5A
:10033000541710F0CF96089501970895FC01918D00
:10034000828D981761F0A28DAE0FBF2FB11D5D9603
:100350008C91928D9F5F9F73928F90E008958FEFA5
:100360009FEF0895FC01918D828D981731F0828D59
:10037000E80FF11D858D90E008958FEF9FEF0895B0
:10038000FC01918D228D892F90E0805C9F4F821B14
:1003900091098F73992708958FE191E00E94C00120
:1003A00021E0892B09F420E0822F089580E090E07D
:1003B000892B29F00E94CC0181110C940000089532
:1003C000FC01A48DA80FB92FB11DA35ABF4F2C91CA
:1003D000848D90E001968F739927848FA689B789C1
:1003E0002C93A089B1898C91837080648C93938DB8
:1003F000848D981306C00288F389E02D80818F7D5B
:1004000080830895EF92FF920F931F93CF93DF9312
:10041000EC0181E0888F9B8D8C8D98131AC0E88940
:10042000F989808185FF15C09FB7F894EE89FF890F
:100430006083E889F98980818370806480839FBFAD
:1004400081E090E0DF91CF911F910F91FF90EF90AD
:100450000895F62E0B8D10E00F5F1F4F0F731127BD
:10046000E02E8C8D8E110CC00FB607FCFACFE889F8
:10047000F989808185FFF5CFCE010E94E001F1CF9F
:10048000EB8DEC0FFD2FF11DE35AFF4FF0829FB76C
:10049000F8940B8FEA89FB8980818062CFCFCF935C
:1004A000DF93EC01888D8823B9F0AA89BB89E8899C
:1004B000F9898C9185FD03C0808186FD0DC00FB642
:1004C00007FCF7CF8C9185FFF2CF808185FFEDCFC0
:1004D000CE010E94E001E9CFDF91CF910895FC01A8
:1004E00001900020E9F73197AF01481B590BBC017F
:1004F0008FE191E00C9462010F931F93CF93DF93F0
:10050000CDB7DEB7A1970FB6F894DEBF0FBECDBF53
:1005100019A2805D88A3CE0180960E946F028C0193
:1005200082E191E00E946F02800F911FA1960FB6A9
:10053000F894DEBF0FBECDBFDF91CF911F910F9119
:1005400008951F920F920FB60F9211242F933F938D
:100550008F939F93AF93BF93809117019091180150
:10056000A0911901B0911A013091160123E0230FD7
:100570002D3758F50196A11DB11D209316018093CA
:10058000170190931801A0931901B0931A0180915B
:100590001B0190911C01A0911D01B0911E010196BB
:1005A000A11DB11D80931B0190931C01A0931D01FF
:1005B000B0931E01BF91AF919F918F913F912F9169
:1005C0000F900FBE0F901F90189526E8230F0296EC
:1005D000A11DB11DD2CF1F920F920FB60F92112401
:1005E0002F933F934F935F936F937F938F939F933B
:1005F000AF93BF93EF93FF938FE191E00E94E001EF
:10060000FF91EF91BF91AF919F918F917F916F91EA
:100610005F914F913F912F910F900FBE0F901F90C0
:1006200018951F920F920FB60F9211242F938F934C
:100630009F93EF93FF93E0912F01F0913001808120
:10064000E0913501F091360182FD1BC090818091CF
:1006500038018F5F8F7320913901821741F0E0914B
:100660003801F0E0E15EFE4F958F80933801FF91F5
:10067000EF919F918F912F910F900FBE0F901F9030
:1006800018958081F4CF789484B5826084BD84B558
:10069000816084BD85B5826085BD85B5816085BD7D
:1006A00080916E00816080936E0010928100809135
:1006B00081008260809381008091810081608093BD
:1006C0008100809180008160809380008091B100E2
:1006D00084608093B1008091B00081608093B0000D
:1006E00080917A00846080937A0080917A008260A1
:1006F00080937A0080917A00816080937A00809163
:100700007A00806880937A001092C10061E082E0F4
:100710000E940C0161E083E00E940C0161E084E032
:100720000E940C0161E085E00E940C0161E08DE017
:100730000E940C0160E086E00E940C0160E087E00E
:100740000E940C0160E088E00E940C0160E089E0FA
:100750000E940C01E0912F01F091300182E0808332
:10076000E0912B01F0912C011082E0912D01F0918C
:100770002E018FEC808310923701E0913301F091CC
:10078000340186E08083E0913101F0913201808173
:1007900080618083E0913101F09132018081886035
:1007A0008083E0913101F091320180818068808303
:1007B000E0913101F091320180818F7D808390E062
:1007C000C92E90E0D92E61E08DE00E94DE0089E024
:1007D0000E94B5007C0188248394892B09F4812C24
:1007E00088E00E94B5008C0177247394892B09F46A
:1007F000712C87E00E94B5005C0166246394892B0C
:1008000009F4612C86E00E94B500552453940097AA
:1008100009F4512C99249394009709F0912CA11478
:10082000B10409F497C0009709F4A3C0C0E0011512
:10083000110509F4A2C004C0C0E0009709F4A9C0E2
:10084000D1E0A114B10409F0D0E0EF2809F07DC097
:10085000012B29F0AB2819F0892B09F079C010E0A1
:10086000882D90E00E947C02872D90E00E947C02FF
:10087000862D90E00E947C02852D90E00E947C02F3
:1008800083E191E00E946F0282E191E00E946F0299
:10089000812F90E00E947C028D2F90E00E947C02CC
:1008A0008C2F90E00E947C02892D90E00E947C02B7
:1008B00083E191E00E946F0282E191E00E946F0269
:1008C000692D82E00E94DE006C2F83E00E94DE0032
:1008D0006D2F84E00E94DE00612F85E00E94DE0023
:1008E00060E08DE00E94DE000E943D012B013C0192
:1008F00088EE882E83E0982EA12CB12C0E943D0119
:100900006419750986099709683E73408105910548
:10091000A8F321E0821A9108A108B10888EE480ED8
:1009200083E0581E611C711C81149104A104B10460
:1009300029F7C114D10409F446CF0E94CC018823C1
:1009400009F441CF0E9400003ECF009709F080CF0C
:1009500011E086CFE114F10411F4009799F4011528
:10096000110509F069CFD0E0C0E0EF2871F7C0E0D1
:100970000EC0C1E00115110561F4009709F464CFC0
:10098000D1E06DCFC1E00115110509F059CFD0E0DC
:1009900066CFD1E0EF2809F45BCFDACFEFE1F1E0E9
:1009A0001382128288EE93E0A0E0B0E08483958306
:1009B000A683B78384E091E09183808385EC90E007
:1009C0009587848784EC90E09787868780EC90E019
:1009D000918B808B81EC90E0938B828B82EC90E00A
:1009E000958B848B86EC90E0978B868B118E128E84
:1009F000138E148E0895EE0FFF1F0590F491E02DD5
:060A00000994F894FFCFF9
:100A060000000000020262018F014F02C0019E0138
:060A1600B2010D0A000010
:00000001FF
